:020000040800F2
:1000000000500020A9030008ED030008ED030008DC
:10001000ED030008ED030008ED03000800000000F8
:10002000000000000000000000000000ED030008D8
:10003000ED03000800000000ED030008ED030008D8
:10004000ED030008ED030008ED030008ED030008D0
:10005000ED030008ED030008ED030008ED030008C0
:10006000ED030008ED030008ED030008ED030008B0
:10007000ED030008ED030008ED030008ED030008A0
:10008000ED030008ED030008ED030008ED03000890
:10009000ED030008ED030008ED030008ED03000880
:1000A000ED030008ED030008ED030008ED03000870
:1000B000ED030008ED030008ED030008ED03000860
:1000C000ED030008ED030008ED030008ED03000850
:1000D000ED030008ED030008ED030008ED03000840
:1000E000ED030008ED030008ED0300080000000028
:1000F0000000000000000000000000000000000000
:0C01000000000000000000005FF808F1A3
:10010C000348044B834202D0034B03B1184770479A
:10011C0000000020000000200000000005480649F7
:10012C000B1AD90F01EBA301491002D0034B03B1F9
:10013C00184770470000002000000020000000005D
:10014C0010B5064C237843B9FFF7DAFF044B13B113
:10015C000448AFF300800123237010BD0000002081
:10016C0000000000F003000808B5044B1BB1044963
:10017C000448AFF30080BDE80840CFE70000000062
:10018C0004000020F003000870B50D4E0D4D761BD9
:10019C00B61006D0002455F8043B01349847A6420B
:1001AC00F9D1094E094D00F01DF9761BB61006D099
:1001BC00002455F8043B01349847A642F9D170BD90
:1001CC0008040008080400080C04000808040008CF
:1001DC0080B400AF0C4B9B690B4A43F0080393614E
:1001EC000A4B1B68094A23F470631360074B1B68A6
:1001FC00064A43F400731360044B04225A6100BF97
:10020C00BD4680BC704700BF00100240000C01408E
:10021C0080B485B000AF786009E00023FB6002E099
:10022C00FB680133FB60FB68B3F5FA5FF8D37B68BE
:10023C005A1E7A60002BF0D100BF00BF1437BD46A8
:10024C0080BC704780B400AF124B1B68114A43F05E
:10025C0010031360104B114ADA60114B9B69104A62
:10026C0043F0010393610E4BDB690D4A43F080535D
:10027C00D3610C4B5B680B4A23F0E0635360094B72
:10028C005B68084A43F08063536000BFBD4680BC86
:10029C00704700BF0020024000ED00E00003FA05AB
:1002AC00001002400000014080B400AF2E4B1B68D0
:1002BC002D4A43F48033136000BF2B4B1B6803F4AF
:1002CC000033002BF9D0294B1B68284A43F010034C
:1002DC001360264B1B68254A23F007031360234B3E
:1002EC001B68224A43F0040313601F4B1E4A5B68D1
:1002FC0053601D4B5B681C4A43F4806353601A4B7C
:10030C00194A5B685360184B5B68174A23F47C13DB
:10031C005360154B5B68144A43F4E8135360124B5B
:10032C001B68114A43F08073136000BF0E4B1B68AF
:10033C0003F00073002BF9D00B4B5B680A4A23F0D7
:10034C0003035360084B5B68074A43F00203536096
:10035C0000BF054B5B6803F00C03082BF9D100BF01
:10036C0000BFBD4680BC7047001002400020024018
:10037C0080B500AFFFF766FFFFF796FFFFF728FF8A
:10038C00054BDB68044A83F00403D3604FF4FA7026
:10039C00FFF73EFFF4E700BF000C01400B480C498F
:1003AC000C4A002302E0D458C4500433C4188C42C5
:1003BC00F9D3094A094C002301E013600432A2422C
:1003CC00FBD3FFF7E1FEFFF7D3FF704700000020DF
:1003DC000000002010040008000000201C00002079
:1003EC00FEE70000F8B500BFF8BC08BC9E4670479D
:0C03FC00F8B500BFF8BC08BC9E46704776
:040408007501000872
:04040C004D01000896
:04000005080003A943
:00000001FF
