:020000040800F2
:10000000600600208900000800F002F800F02CF8DB
:100010000AA090E8000C82448344AAF10107DA4563
:1000200001D100F021F8AFF2090EBAE80F0013F089
:10003000010F18BFFB1A43F0010318471C02000010
:100040002C0200000023002400250026103A28BFBF
:1000500078C1FBD8520728BF30C148BF0B6070473A
:100060001FB51FBD10B510BD00F025F81146FFF7F4
:10007000F7FF00F0BFF800F043F803B4FFF7F2FF1A
:1000800003BC00F04BF8000004480047FEE7000006
:1000900003480449044A054B704700000900000862
:1000A0006000002060060020600200206002002046
:1000B000704770477047754600F02CF8AE46050053
:1000C0006946534620F00700854618B020B5FFF773
:1000D000DFFFBDE820404FF000064FF000074FF073
:1000E00000084FF0000B21F00701AC46ACE8C00956
:1000F000ACE8C009ACE8C009ACE8C0098D4670475F
:1001000010B50446AFF300802046BDE81040FFF76D
:10011000B4BF0000004870470000002001491820CB
:10012000ABBEFEE726000200704700001C480168D5
:1001300041F48031016001688903FCD519490A68DE
:1001400042F010020A600A6822F007020A600A6898
:1001500042F004020A6041684160416841F48061F4
:10016000416041684160416821F47C11416041680F
:1001700041F4E8114160016841F08071016001685B
:100180008901FCD5416821F003014160416841F0DB
:10019000020141604168C1F381010229FAD170472F
:1001A00000100240002002400D48016841F010019B
:1001B00001600D490B4808600C48816941F001015C
:1001C0008161C16941F08051C1610948416821F0F4
:1001D000E0614160416841F080614160704700002A
:1001E000002002400003FA050CED00E00010024080
:1001F0000000014008B5FFF7D7FFFFF797FF14484D
:10020000816941F0080181611248016821F470613F
:100210000160016841F4007101600E49042014314D
:1002200008600C4940F2F3140C3100224FF4FA53E9
:10023000086880F0040008602046009200BF009D1E
:100240006D1C00959D42F9D3401EF6D2F0E70000E8
:1002500000100240000C014068020008000000206D
:080260006006000044000008E4
:0400000508000009E6
:00000001FF
